:100000000C942A000C943C000C943C000C943C0092
:100010000C943C000C943C000C943C000C943C0070
:100020000C943C000C94DA000C943C000C943C00C2
:100030000C943C000C943C000C943C000C943C0050
:100040000C943C000C943C000C943C000C943C0040
:100050000C943C0011241FBECFE5D4E0DEBFCDBF21
:1000600020E0A0E6B0E001C01D92A936B207E1F79A
:100070000E94CB000C944A010C9400001ABA8FEF36
:100080008BBB93E097BB2CEF28BB24BB95BB11BA6D
:1000900082BB08958C9A8D9A1EBC1DBC1CBC1BBCD7
:1000A0001ABC19BC18BC81E087BD8FE886BD82EA06
:1000B0008FBD8AE18EBD089584B3806F84BB85B304
:1000C000806F85BB0C944A00AC9AAD98AE9AAF98FD
:1000D0000895AC98AD9AAE98AF9A0895AC98AD9A41
:1000E000AE9AAF980895AC9AAD98AE98AF9A08952D
:1000F000AC98AD98AE98AF98089581B3807F81BBDE
:1001000082B38F6082BB089580B38095817090E048
:10011000089580B3869591E08927817090E00895D5
:1001200080B38695869591E08927817090E0089547
:1001300080B386958695869591E08927817090E0B9
:1001400008950E944A000E943E000E945C000E94A6
:100150007D008FE891E09BBD8ABD99BD88BD089563
:100160000E948400892B11F00C9464000E94890085
:10017000892B11F00C9469000E949000892B11F0DA
:100180000C946E000E949800892B11F00C9473005F
:100190000C94780008950E9424010E94CA000E94D5
:1001A000A100C0E0D0E00E94B0002097E1F30E94DF
:1001B0000000F9CF1F920F920FB60F9211242F93C8
:1001C0003F938F939F93AF93BF93809161009091E2
:1001D0006200A0916300B09164003091600023E060
:1001E000230F2D3720F40196A11DB11D05C026E86F
:1001F000230F0296A11DB11D209360008093610022
:1002000090936200A0936300B093640080916500B6
:1002100090916600A0916700B09168000196A11DC1
:10022000B11D8093650090936600A0936700B09322
:100230006800BF91AF919F918F913F912F910F9047
:100240000FBE0F901F901895789483B7826083BF7C
:1002500083B7816083BF83B7806483BF83B78860BF
:1002600083BF89B7816089BF1EBC8EB582608EBD99
:100270008EB581608EBD8FB581608FBD85B5846080
:1002800085BD85B5806485BD329A319A309A379A9A
:080290001AB80895F894FFCF9D
:00000001FF
