:100000000C942A000C943C000C943C000C943C0092
:100010000C943C000C943C000C943C000C943C0070
:100020000C943C000C94DA000C943C000C943C00C2
:100030000C943C000C943C000C943C000C943C0050
:100040000C943C000C943C000C943C000C943C0040
:100050000C943C0011241FBECFE5D4E0DEBFCDBF21
:1000600020E0A0E6B0E001C01D92A936B207E1F79A
:100070000E94CB000C944A010C9400001ABA8FEF36
:100080008BBB93E097BB2CEF28BB24BB95BB11BA6D
:1000900082BB08958C9A8D9A1EBC1DBC1CBC1BBCD7
:1000A0001ABC19BC18BC81E087BD8FE886BD82EA06
:1000B0008FBD8AE18EBD089584B3806F84BB85B304
:1000C000806F85BB0C944A00AC9AAD98AE9AAF98FD
:1000D0000895AC98AD9AAE98AF9A0895AC98AD9A41
:1000E000AE9AAF980895AC9AAD98AE98AF9A08952D
:1000F000AC98AD98AE98AF98089581B3807F81BBDE
:1001000082B38F6082BB089580B38095817090E048
:10011000089580B3869591E08927817090E00895D5
:1001200080B38695869591E08927817090E0089547
:1001300080B386958695869591E08927817090E0B9
:1001400008950E944A000E943E000E945C000E94A6
:100150007D008FE891E09BBD8ABD99BD88BD089563
:100160000E948400892B11F00C9464000E94890085
:10017000892B11F00C9469000E949000892B11F0DA
:100180000C946E000E949800892B11F00C9473005F
:100190000C94780008950E9424010E94CA000E94D5
:1001A000A100C0E0D0E00E94B0002097E1F30E94DF
:1001B0000000F9CF1F920F920FB60F9211242F93C8
:1001C0003F938F939F93AF93BF93809161009091E2
:1001D0006200A0916300B09164003091600023E060
:1001E000230F2D3720F40196A11DB11D05C026E86F
:1001F000230F0296A11DB11D209360008093610022
:1002000090936200A0936300B093640080916500B6
:1002100090916600A0916700B09168000196A11DC1
:10022000B11D8093650090936600A0936700B09322
:100230006800BF91AF919F918F913F912F910F9047
:100240000FBE0F901F901895789483B7826083BF7C
:1002500083B7816083BF83B7806483BF83B78860BF
:1002600083BF89B7816089BF1EBC8EB582608EBD99
:100270008EB581608EBD8FB581608FBD85B5846080
:1002800085BD85B5806485BD329A319A309A379A9A
:080290001AB80895F894FFCF9D
:103E000001C0B2C011248FE594E09EBF8DBF84B77E
:103E1000882349F0982F9A70923029F081FF02C0D0
:103E200097EF94BFCFD085E08EBD82E08BB988E15B
:103E30008AB986E880BD80E189B98EE0B0D0B89AB1
:103E400084E040E35CEF34E021E05DBD4CBD38BF71
:103E500008B602FEFDCF98B3922798BBA895815073
:103E6000A1F7C0E0D0E094D08134B1F491D0182F04
:103E70009AD0123811F482E00DC0113851F486E066
:103E800009C0853709F068C08ED08EE17DD084E905
:103E90007BD083E079D065C0823411F484E103C023
:103EA000853419F485E087D05CC0853541F470D045
:103EB000C82F6ED0D0E0D82BCC0FDD1F51C0863577
:103EC00021F484E078D080E0E5CF8436A1F560D09D
:103ED0005FD0182F5DD0D82E012F90E6E92EF12C5F
:103EE00057D0F70181937F010150D1F75CD0F5E401
:103EF000DF1201C0FFCF40E050E063E0CE0134D0DC
:103F00006E0180E6E82EF12CF7014081818150E0BE
:103F1000582B61E0C60128D0F2E0CF0ED11C125020
:103F200082E0E80EF11C1111EFCF40E050E065E0B7
:103F3000CE011AD016C0843709F0A3CF29D028D0DB
:103F4000F82E26D030D08E01F80185918F011CD03B
:103F5000FA94F110F9CF05C0813511F488E01FD033
:103F600022D080E111D07FCFFC010A0167BFE89524
:103F7000112407B600FCFDCF667029F0452B19F41B
:103F800081E187BFE89508955D9BFECF8CB90895C8
:103F90005F9BFECF5C9901C0A8958CB1089598E114
:103FA00091BD81BD0895F4DF803219F088E0F7DF1C
:103FB000FFCF84E1E9CFCF93C82FEADFC150E9F703
:103FC000CF91F1CF282E80E0EADFE0E0FF270994CF
:023FFE000206B9
:0400000300003E00BB
:00000001FF
